:100000000C9462000C948A000C948A000C948A0070
:100010000C948A000C948A000C948A000C948A0038
:100020000C948A000C948A000C948A000C948A0028
:100030000C948A000C948A000C948A000C948A0018
:100040000C94FA040C948A000C94C8040C94A20436
:100050000C948A000C948A000C948A000C948A00F8
:100060000C948A000C948A000000000024002700F1
:100070002A0000000000250028002B0000000008D6
:10008000000201000003040700000000000000005F
:1000900000000000230026002900040404040404D6
:1000A0000404020202020202030303030303010227
:1000B00004081020408001020408102001020408F6
:1000C0001020890511241FBECFEFD8E0DEBFCDBFC1
:1000D00011E0A0E0B1E0E4EDF4E102C005900D9282
:1000E000AA3CB107D9F722E0AAECB1E001C01D9209
:1000F000AE3AB207E1F710E0C2E6D0E004C02197C3
:10010000FE010E945D0AC136D107C9F70E944C0664
:100110000C94680A0C940000CF92DF92EF92FF9249
:100120000F931F93CF93DF936C017A018B01C0E093
:10013000D0E0CE15DF0589F0D8016D918D01D60193
:10014000ED91FC910190F081E02DC6010995892B7C
:1001500011F47E0102C02196ECCFC701DF91CF914F
:100160001F910F91FF90EF90DF90CF900895FC01C9
:10017000538D448D252F30E0842F90E0821B930B0C
:10018000541710F0CF96089501970895FC01918DB2
:10019000828D981761F0828DDF01A80FB11D5D96E9
:1001A0008C91928D9F5F9F73928F90E008958FEF57
:1001B0009FEF0895FC01918D828D981731F0828D0B
:1001C000E80FF11D858D90E008958FEF9FEF089562
:1001D000FC01918D228D892F90E0805C9F4F821BC6
:1001E00091098F73992708958FED91E00E94E8009F
:1001F00021E0892B09F420E0822F0895FC01848DF1
:10020000DF01A80FB11DA35ABF4F2C91848D90E040
:1002100001968F739927848FA689B7892C93A0891B
:10022000B1898C9180648C93938D848D981306C0D2
:100230000288F389E02D80818F7D80830895EF927D
:10024000FF920F931F93CF93DF93EC0181E0888F90
:100250009B8D8C8D981305C0E889F989808185FD77
:1002600024C0F62E0B8D10E00F5F1F4F0F73112768
:10027000E02E8C8DE8120CC00FB607FCFACFE8898F
:10028000F989808185FFF5CFCE010E94FE00F1CF74
:100290008B8DFE01E80FF11DE35AFF4FF0820B8FAB
:1002A000EA89FB898081806207C0EE89FF896083CB
:1002B000E889F98980818064808381E090E0DF9122
:1002C000CF911F910F91FF90EF900895CF93DF93FF
:1002D000EC01888D8823C9F0EA89FB89808185FD3E
:1002E00005C0A889B9898C9186FD0FC00FB607FC9F
:1002F000F5CF808185FFF2CFA889B9898C9185FFE0
:10030000EDCFCE010E94FE00E7CFDF91CF9108959F
:1003100080E090E0892B29F00E94F40081110C9478
:1003200000000895833081F028F4813099F0823004
:10033000A1F008958730A9F08830B9F08430D1F465
:10034000809180008F7D03C0809180008F778093A3
:100350008000089584B58F7702C084B58F7D84BDF9
:1003600008958091B0008F7703C08091B0008F7D99
:100370008093B0000895CF93DF93282F30E0F901E8
:10038000E458FF4F8491F901E255FF4FD491F901F0
:10039000E656FF4FC491CC2391F081110E94920147
:1003A000EC2FF0E0EE0FFF1FE057FF4FA591B49147
:1003B000EC91ED2381E090E021F480E002C080E048
:1003C00090E0DF91CF9108951F93CF93DF93282F73
:1003D00030E0F901E458FF4F8491F901E255FF4FF5
:1003E000D491F901E656FF4FC491CC23C9F0162FE2
:1003F00081110E949201EC2FF0E0EE0FFF1FEE58EA
:10040000FF4FA591B4918FB7F894111105C09C913D
:10041000ED2FE095E92302C0EC91ED2BEC938FBF1B
:10042000DF91CF911F910895CF93DF9390E0FC016E
:10043000E255FF4F2491FC01E656FF4F849188233B
:1004400061F190E0880F991FFC01E859FF4FC591B9
:10045000D491FC01EE58FF4FA591B491611109C0F0
:100460009FB7F8948881209582238883EC912E236E
:100470000BC0623061F49FB7F8943881822F809569
:1004800083238883EC912E2B2C939FBF06C08FB7BC
:10049000F894E8812E2B28838FBFDF91CF910895A8
:1004A0003FB7F8948091CF019091D001A091D101F4
:1004B000B091D20126B5A89B05C02F3F19F0019637
:1004C000A11DB11D3FBFBA2FA92F982F8827820FDA
:1004D000911DA11DB11DBC01CD0142E0660F771F2A
:1004E000881F991F4A95D1F708958F929F92AF92D6
:1004F000BF92CF92DF92EF92FF926B017C010E943C
:1005000050024B015C01C114D104E104F104F1F08B
:100510000E945002DC01CB0188199909AA09BB0984
:10052000883E9340A105B10570F321E0C21AD108BD
:10053000E108F10888EE880E83E0981EA11CB11C2A
:10054000C114D104E104F10419F7DDCFFF90EF905D
:10055000DF90CF90BF90AF909F908F900895CF93F2
:10056000DF93EC0160E08E810E94E40161E08E8106
:100570000E94E40160E08E810E94E4018BE891E03A
:100580000197F1F7DF91CF910895CF92DF92EF922B
:10059000FF920F931F93CF93DF937C016C0187E051
:1005A000C80ED11CC0E0D0E0062F10E0B8010C2E20
:1005B00002C0759567950A94E2F76170F601819122
:1005C0006F010E94E4012196C430D10579F7C7017B
:1005D000DF91CF911F910F91FF90EF90DF90CF901F
:1005E0000C94AF02CF92DF92EF92FF920F931F9382
:1005F000CF93DF93EC01F62E642F8C810E94E401EF
:100600008D818F3F19F060E00E94E4018F850F2DEE
:1006100010E084FF25C06E0187E0C80ED11CE12CDC
:10062000F12CB8010E2C02C0759567950A94E2F77B
:100630006170F60181916F010E94E401FFEFEF1AF2
:10064000FF0A88E0E816F10461F7CE01DF91CF914F
:100650001F910F91FF90EF90DF90CF900C94AF021D
:10066000B80184E0759567958A95E1F7CE010E94FF
:10067000C5026F2DCE01DF91CF911F910F91FF9099
:10068000EF90DF90CF900C94C50241E00E94F202FF
:1006900081E090E0089540E00C94F202EF92FF9226
:1006A0000F931F93CF93DF93EC01623018F08F8587
:1006B00088608F876B8B1C8A80E48D8B80E18E8BAA
:1006C00080E58F8B61E08C810E9414028D818F3FC9
:1006D00019F061E00E94140261E08E810E94140210
:1006E0007E0187E0E80EF11C00E010E08F8584FDBC
:1006F00003C084E090E002C088E090E0081719078A
:100700004CF461E0F70181917F010E9414020F5FB8
:100710001F4FECCF8BE39DE00197F1F760E08C81F8
:100720000E94E40160E08E810E94E4018D818F3F90
:1007300019F060E00E94E4016F8564FD1DC063E074
:10074000CE010E94C5020BE416E4C8010197F1F73F
:1007500063E0CE010E94C502C8010197F1F763E092
:10076000CE010E94C50283E592E00197F1F762E0B5
:10077000CE010E94C50216C06062CE010E944B03EA
:100780008BE496E40197F1F76F856062CE010E94D9
:100790004B0383E592E00197F1F76F856062CE012C
:1007A0000E944B036F856062CE010E944B0384E080
:1007B000888B6CE0CE010E944B0361E0CE010E9469
:1007C0004B038BE39FE10197F1F782E0898B66E0B1
:1007D000CE01DF91CF911F910F91FF90EF900C947C
:1007E0004B03843008F083E09091A902891710F040
:1007F0008FEF890FE82FF0E0EA56FD4F64896068BB
:1008000086E992E00C944B03089580E090E008950F
:100810000E94630A6115710579F0FB0101900020C7
:10082000E9F73197AF01461B570BDC01ED91FC91C5
:100830000280F381E02D099480E090E008954F92CA
:100840005F926F927F928F929F92AF92BF92CF9260
:10085000DF92EF92FF920F931F93CF93DF93CDB769
:10086000DEB7A1970FB6F894DEBF0FBECDBF8C01E7
:100870006A017B0177FF2FC0DC01ED91FC910190B3
:10088000F081E02D6DE209955C0122273327A90153
:100890002C193D094E095F0919A2FE01B1967F018D
:1008A0009AE0492E512C612C712CCA01B901A30187
:1008B00092010E943B0A605DD7016E937D01211574
:1008C00031054105510589F7BD01C8010E940A049F
:1008D0008A0D9B1D1EC09A01AB0119A2FE01B196A3
:1008E0007F018AE0882E912CA12CB12CCA01B9017C
:1008F000A50194010E943B0A605DD7016E937D01C2
:10090000211531054105510589F7BD01C8010E9436
:100910000A04A1960FB6F894DEBF0FBECDBFDF91DB
:10092000CF911F910F91FF90EF90DF90CF90BF90EC
:10093000AF909F908F907F906F905F904F900895B1
:100940000C940A041F920F920FB60F9211242F934A
:100950003F934F935F936F937F938F939F93AF9347
:10096000BF93EF93FF938FED91E00E94FE00FF9104
:10097000EF91BF91AF919F918F917F916F915F9117
:100980004F913F912F910F900FBE0F901F90189590
:100990001F920F920FB60F9211242F938F939F9354
:1009A000EF93FF93E091EF01F091F0018081E091EE
:1009B000F501F091F60182FD12C090818091F8015D
:1009C0008F5F8F732091F901821751F0E091F80148
:1009D000F0E0E152FE4F958F8093F80101C08081D5
:1009E000FF91EF919F918F912F910F900FBE0F90DC
:1009F0001F9018951F920F920FB60F9211242F93EC
:100A00003F938F939F93AF93BF938091CB0190912E
:100A1000CC01A091CD01B091CE013091CA0123E06B
:100A2000230F2D3720F40196A11DB11D05C026E826
:100A3000230F0296A11DB11D2093CA018093CB0103
:100A40009093CC01A093CD01B093CE018091CF01C2
:100A50009091D001A091D101B091D2010196A11D38
:100A6000B11D8093CF019093D001A093D101B09399
:100A7000D201BF91AF919F918F913F912F910F9094
:100A80000FBE0F901F901895CF92DF92EF92FF92BA
:100A90000F931F93E82FF92F05C001501109210969
:100AA000310961F1908196239417B9F305C0015083
:100AB00011092109310911F1908196239413F7CF7F
:100AC000C12CD12CE12CF12C0AC08FEFC81AD80A06
:100AD000E80AF80A0C151D052E053F0579F08081FE
:100AE0008623841791F36C2D7D2D8E2D9F2D1F91C4
:100AF0000F91FF90EF90DF90CF90089560E070E04D
:100B000080E090E01F910F91FF90EF90DF90CF90E9
:100B10000895CF92DF92EF92FF920F931F93CF939E
:100B2000DF93EFEDF1E01382128288EE93E0A0E014
:100B3000B0E084839583A683B78380E591E09183B9
:100B4000808385EC90E09587848784EC90E097879C
:100B5000868780EC90E0918B808B81EC90E0938B8A
:100B6000828B82EC90E0958B848B86EC90E0978B67
:100B7000868B118E128E138E148EE3E1F1E08EE0DF
:100B8000C82EC1829FE0D92ED28220E1E22EE382DC
:100B900082E0848393E0958324E0268335E03783E5
:100BA0004DE0F42EF08606E00187C286D386E48607
:100BB000858796872787308BF18A028BE0E0F1E00A
:100BC00011E11183D2E1D283C3E1C383B7E0B483DF
:100BD000A9E0A58378E076836AE067835CE05087CC
:100BE0004BE041871287D387C487B587A68777876D
:100BF000608B518B428BE9E3F1E0C182D282E382C8
:100C00008483958326833783F0860187C286D386C3
:100C1000E486858796872787308BF18A028BE6E208
:100C2000F1E01183D283C383B483A5837683678382
:100C3000508741871287D387C487B587A687778770
:100C4000608B518B428BE6E9F2E01382128262E6FE
:100C500071E07183608354835FEF558346833783EC
:100C600020879187828713861486158616861786B5
:100C700061E0CF010E944E03ECE7F2E082E090E0F9
:100C8000918F808F178ADF91CF911F910F91FF90E5
:100C9000EF90DF90CF900895CF93DF9300D000D0F6
:100CA0001F92CDB7DEB7789484B5826084BD84B5D9
:100CB000816084BD85B5826085BD85B5816085BD57
:100CC00080916E00816080936E001092810080910F
:100CD0008100826080938100809181008160809397
:100CE0008100809180008160809380008091B100BC
:100CF00084608093B1008091B00081608093B000E7
:100D000080917A00846080937A0080917A0082607A
:100D100080937A0080917A00816080937A0080913C
:100D20007A00806880937A001092C100E091EF0110
:100D3000F091F00182E08083E091EB01F091EC0111
:100D40001082E091ED01F091EE018FEC8083109222
:100D5000F701E091F301F091F40186E08083E091E6
:100D6000F101F091F201808180618083E091F101D5
:100D7000F091F201808188608083E091F101F0912F
:100D8000F201808180688083E091F101F091F201AD
:100D900080818F7D808362E086E992E00E944E032D
:100DA0006AE671E086E992E00E94A00488E090E0A3
:100DB00090939502809394021092930261E086E0F2
:100DC0000E94140260E087E00E9414026CED75E05E
:100DD00080E090E00E94750261E086E992E00E9466
:100DE0004B038BE39FE10197F1F722242394312CED
:100DF00058EC452E512C612C712C19821A821B82C1
:100E00001C821D8261E088E00E94140260E088E09C
:100E10000E94E40162E170E080E090E00E947502CF
:100E200061E088E00E94E4018BE990E00197F1F72E
:100E300060E088E00E94140201E117E288E00E946D
:100E4000BB01892B21F401501109C1F762C001E1F6
:100E500017E288E00E94BB01019721F401501109BB
:100E6000C1F757C038E2E32EF12C17E000E021E192
:100E7000C22E27E2D22E88E00E94BB01892B29F4E2
:100E800081E0C81AD108B9F744C00E9450024B0152
:100E90005C0191E1C92E97E2D92E88E00E94BB0146
:100EA000019729F481E0C81AD108B9F732C00E942D
:100EB0005002DC01CB0188199909AA09BB0989975D
:100EC000A105B10578F0E1E0F0E0EC0FFD1FE00FC7
:100ED000F11D2081C101012E01C0880F0A94EAF79B
:100EE000822B8083111103C00F5F17E001C01150E6
:100EF00081E0E81AF10809F0BACF898190E0909377
:100F00007D0280937C028B8190E090937F0280939E
:100F10007E0280917E0290917F029093DE01809309
:100F2000DD0180917C0290917D029093DC018093A1
:100F3000DB0180E00E94F10366E771E086E992E060
:100F40000E94A0044091DD015091DE01052E000CAD
:100F5000660B770B86E992E00E941F0469E771E057
:100F600086E992E00E94A00449E150E060E070E070
:100F700086E992E00E941F046BE771E086E992E047
:100F80000E94A0044091DB015091DC01052E000C71
:100F9000660B770B86E992E00E941F048091DD01C9
:100FA0009091DE014A970CF181E00E94F10360E824
:100FB00071E086E992E00E94A00461E971E08FEDA2
:100FC00091E00E94A0044091DD015091DE01052EC8
:100FD000000C660B770B8FED91E00E941F046BE90C
:100FE00071E08FED91E00E940A0460E086E00E94CB
:100FF000E4018FE090E00197F1F761E086E00E9464
:10100000E40183E290E00197F1F760E086E00E945E
:10101000E401E5EBF0E06491E1EAF0E0E491F0E076
:10102000EE0FFF1FE057FF4F8591949100E412E40B
:101030002FE030E0462F0E944405611571058105BF
:10104000910549F0DC01CB010196A11DB11DBC0148
:10105000CD019F7003C060E070E0CB016093D701C9
:101060007093D8018093D9019093DA010E944209CC
:101070002DEC3CEC48EE51E40E94980820E030E072
:1010800040E05FE30E94CE090E940A09693C7105B5
:10109000810591054CF46093D3017093D401809342
:1010A000D5019093D60108C04092D3015092D4014B
:1010B0006092D5017092D6018091D3019091D401B4
:1010C000A091D501B091D6010697A109B1098C97DD
:1010D000A105B10550F581E00E94F1036EE971E0D0
:1010E00086E992E00E94A00481E00E94F1036FEA89
:1010F00071E086E992E00E94A0046FEB71E08FED51
:1011000091E00E94A0044091D3015091D4016091DC
:10111000D5017091D6018FED91E00E941F046BE91B
:1011200071E08FED91E00E940A040E94880165CE73
:101130000E94AC080C9494090E948D0958F00E94FA
:10114000860940F029F45F3F29F00C947D09511184
:101150000C94C8090C9483090E94A50968F399238B
:10116000B1F3552391F3951B550BBB27AA276217A3
:101170007307840738F09F5F5F4F220F331F441FB0
:10118000AA1FA9F335D00E2E3AF0E0E832D09150E4
:101190005040E695001CCAF72BD0FE2F29D0660FD1
:1011A000771F881FBB1F261737074807AB07B0E814
:1011B00009F0BB0B802DBF01FF2793585F4F3AF01A
:1011C0009E3F510578F00C947D090C94C8095F3F4F
:1011D000E4F3983ED4F3869577956795B795F795A0
:1011E0009F5FC9F7880F911D9695879597F9089588
:1011F000E1E0660F771F881FBB1F62177307840724
:10120000BA0720F0621B730B840BBA0BEE1F88F732
:10121000E09508950E9411096894B1110C94C809D1
:1012200008950E94AD0988F09F5798F0B92F99272B
:10123000B751B0F0E1F0660F771F881F991F1AF0C1
:10124000BA95C9F714C0B13091F00E94C709B1E056
:1012500008950C94C709672F782F8827B85F39F055
:10126000B93FCCF3869577956795B395D9F73EF45A
:1012700090958095709561957F4F8F4F9F4F089502
:10128000E89409C097FB3EF4909580957095619520
:101290007F4F8F4F9F4F9923A9F0F92F96E9BB27D6
:1012A0009395F695879577956795B795F111F8CF52
:1012B000FAF4BB0F11F460FF1BC06F5F7F4F8F4FBD
:1012C0009F4F16C0882311F096E911C0772321F0B3
:1012D0009EE8872F762F05C0662371F096E8862F4B
:1012E00070E060E02AF09A95660F771F881FDAF7A2
:1012F000880F9695879597F9089597F99F6780E8E5
:1013000070E060E008959FEF80EC089500240A9457
:101310001616170618060906089500240A941216D0
:101320001306140605060895092E0394000C11F403
:10133000882352F0BB0F40F4BF2B11F460FF04C0B0
:101340006F5F7F4F8F4F9F4F089557FD9058440F09
:10135000551F59F05F3F71F04795880F97FB991F14
:1013600061F09F3F79F087950895121613061406D1
:10137000551FF2CF4695F1DF08C01616170618065E
:10138000991FF1CF86957105610508940895E89439
:10139000BB2766277727CB0197F908950E94E109BB
:1013A0000C9494090E94860938F00E948D0920F05F
:1013B000952311F00C947D090C94830911240C944D
:1013C000C8090E94A50970F3959FC1F3950F50E0DD
:1013D000551F629FF001729FBB27F00DB11D639FE7
:1013E000AA27F00DB11DAA1F649F6627B00DA11D8D
:1013F000661F829F2227B00DA11D621F739FB00D33
:10140000A11D621F839FA00D611D221F749F3327A2
:10141000A00D611D231F849F600D211D822F762F3B
:101420006A2F11249F5750409AF0F1F088234AF018
:10143000EE0FFF1FBB1F661F771F881F9150504084
:10144000A9F79E3F510580F00C947D090C94C809C2
:101450005F3FE4F3983ED4F3869577956795B7950B
:10146000F795E7959F5FC1F7FE2B880F911D969525
:10147000879597F90895A1E21A2EAA1BBB1BFD01BF
:101480000DC0AA1FBB1FEE1FFF1FA217B307E40763
:10149000F50720F0A21BB30BE40BF50B661F771FBB
:1014A000881F991F1A9469F760957095809590959B
:1014B0009B01AC01BD01CF010895EE0FFF1F059008
:1014C000F491E02D099481E090E0F8940C94680A7E
:0414D000F894FFCFBE
:1014D40042000000000000000000000000000000C6
:1014E40000000041000000000000000000000000B7
:1014F40000000000000042000000000000000000A6
:101504000000000000000000004100000000000096
:1015140000000000000000000000000000000000C7
:101524001F018C00B7006601E800C600DA00000065
:10153400000045038C0005040404454E47694E2011
:1015440050524F4A4500533A00280029204E3A0091
:10155400534943414B4C494B2055594152495349F6
:101564000073636B616C61726D3A000D0A00202098
:101574002020202020202020202020202020002087
:101584004D45534146452055594152495349006DF3
:0A1594007366616C61726D3A00002D
:107E0000112484B714BE81FFF0D085E080938100F7
:107E100082E08093C00088E18093C10086E0809377
:107E2000C20080E18093C4008EE0C9D0259A86E02C
:107E300020E33CEF91E0309385002093840096BBD3
:107E4000B09BFECF1D9AA8958150A9F7CC24DD24C4
:107E500088248394B5E0AB2EA1E19A2EF3E0BF2EE7
:107E6000A2D0813461F49FD0082FAFD0023811F036
:107E7000013811F484E001C083E08DD089C08234E0
:107E800011F484E103C0853419F485E0A6D080C0E4
:107E9000853579F488D0E82EFF2485D0082F10E0AE
:107EA000102F00270E291F29000F111F8ED06801E7
:107EB0006FC0863521F484E090D080E0DECF843638
:107EC00009F040C070D06FD0082F6DD080E0C81688
:107ED00080E7D80618F4F601B7BEE895C0E0D1E017
:107EE00062D089930C17E1F7F0E0CF16F0E7DF06D8
:107EF00018F0F601B7BEE89568D007B600FCFDCFD4
:107F0000A601A0E0B1E02C9130E011968C91119780
:107F100090E0982F8827822B932B1296FA010C0160
:107F200087BEE89511244E5F5F4FF1E0A038BF0790
:107F300051F7F601A7BEE89507B600FCFDCF97BE46
:107F4000E89526C08437B1F42ED02DD0F82E2BD052
:107F50003CD0F601EF2C8F010F5F1F4F84911BD097
:107F6000EA94F801C1F70894C11CD11CFA94CF0C13
:107F7000D11C0EC0853739F428D08EE10CD085E9AC
:107F80000AD08FE07ACF813511F488E018D01DD067
:107F900080E101D065CF982F8091C00085FFFCCF94
:107FA0009093C60008958091C00087FFFCCF809118
:107FB000C00084FD01C0A8958091C6000895E0E648
:107FC000F0E098E1908380830895EDDF803219F02E
:107FD00088E0F5DFFFCF84E1DECF1F93182FE3DFCA
:107FE0001150E9F7F2DF1F91089580E0E8DFEE27F6
:047FF000FF270994CA
:027FFE00040479
:0400000300007E007B
:00000001FF
